:020000040800F2
:100000000020002041110008911100089111000802
:1000100000000000000000000000000000000000E0
:100020000000000000000000000000009111000826
:10003000000000000000000091110008C10D000840
:100040009111000891110008911100089111000808
:1000500091110008911100089111000891110008F8
:1000600091110008911100089111000891110008E8
:100070009111000891110008000000009111000882
:1000800000000000911100080000000000000000C6
:10009000310D0008000000009111000891110008C6
:1000A00091110008911100089111000891110008A8
:1000B0009111000891110008911100089111000898
:1000C00010B5064C2378002B07D1054B002B02D02E
:1000D000044800E000BF0123237010BD040000208D
:1000E00000000000DC110008044B10B5002B03D009
:1000F0000349044800E000BF10BDC04600000000F6
:1001000008000020DC110008002243088B4274D351
:1001100003098B425FD3030A8B4244D3030B8B4208
:1001200028D3030C8B420DD3FF22090212BA030C11
:100130008B4202D31212090265D0030B8B4219D3F2
:1001400000E0090AC30B8B4201D3CB03C01A524112
:10015000830B8B4201D38B03C01A5241430B8B425A
:1001600001D34B03C01A5241030B8B4201D30B0343
:10017000C01A5241C30A8B4201D3CB02C01A52416A
:10018000830A8B4201D38B02C01A5241430A8B422D
:1001900001D34B02C01A5241030A8B4201D30B0216
:1001A000C01A5241CDD2C3098B4201D3CB01C01A30
:1001B000524183098B4201D38B01C01A524143093A
:1001C0008B4201D34B01C01A524103098B4201D328
:1001D0000B01C01A5241C3088B4201D3CB00C01A95
:1001E000524183088B4201D38B00C01A524143080D
:1001F0008B4201D34B00C01A5241411A00D2014632
:10020000524110467047FFE701B5002000F006F8A4
:1002100002BDC0460029F7D076E770477047C04658
:10022000084AD36A04210B43D362074B1A68013989
:100230008A431A60DA6801390A43DA60034B002204
:100240001A70704700100240000800502000002083
:10025000204B1A6901231A401F4B1B78002B34D006
:100260001D4B002119701D4B5B78012B13D0002B07
:1002700007D0022B19D0032B1DD0184B00225A7027
:1002800026E0002A03D0154B01225A7020E0134BC0
:1002900000225A701CE0002A03D0104B02225A7030
:1002A00016E00E4B00225A7012E00C4B01221A701D
:1002B00002325A700CE0002A03D0084B03225A7015
:1002C00006E0064B00225A7002E00133024A137026
:1002D0007047C046000800500000002020000020A9
:1002E000034B1878012800D0704700221A70FBE7F2
:1002F000200000200D2813D88000604B1B589F461B
:10030000A023DB051A685E490A401A60196880223A
:1003100052030A431A6059698022D2000A435A6183
:100320007047584B1A68C0218A431A601A6880398E
:100330000A431A605A6938390A435A61F0E7514B47
:100340001A6851490A401A6019688022D2000A438B
:100350001A605A6920210A435A61E1E7494B1A6839
:100360004A490A401A601968802252000A431A60FA
:100370005A6910210A435A61D2E7424B1A68404930
:100380000A401A601968802252030A431A605969A8
:100390008022D2000A435A61C2E7A023DB051A6813
:1003A0003B490A401A601968802252020A431A60C7
:1003B0005969802252000A435A61B1E7A023DB0544
:1003C0001A6834490A401A6019688022D2020A4326
:1003D0001A605969802292000A435A61A0E72E4BA5
:1003E0001A682E490A401A6019688022D2010A430D
:1003F0001A605A6980210A435A6191E7214B1A68B1
:1004000027490A401A601968802252010A431A607B
:100410005A6940210A435A6182E7A023DB051A6822
:100420001E490A401A6019688022D2010A431A60E4
:100430005A6980210A435A6172E7A023DB051A68D2
:1004400017490A401A601968802252010A431A604B
:100450005A6940210A435A6162E7A023DB051A6802
:1004600009490A401A6019688022D2000A431A60BA
:100470005A6920210A435A6152E7C046F411000824
:10048000FFFFCFFF00040050FFF3FFFFFFFCFFFF63
:10049000FFFFFCFFFFFFF3FF00080050FF3FFFFFDF
:1004A000FFCFFFFF0D2812D880005E4B1B589F46E0
:1004B000A023DB051A685C490A401A60196880228B
:1004C00052030A431A605A6958490A405A617047F0
:1004D000574B1A68C0218A431A601A6880390A4348
:1004E0001A605A6938398A435A61F0E7504B1A68E2
:1004F00050490A401A6019688022D2000A431A60E3
:100500005A6920218A435A61E1E7494B1A684A49EE
:100510000A401A601968802252000A431A605A6918
:1005200010218A435A61D2E7414B1A683E490A407A
:100530001A601968802252030A431A605A693B49BB
:100540000A405A61C3E7A023DB051A683B490A4009
:100550001A601968802252020A431A605A6938499F
:100560000A405A61B3E7A023DB051A6835490A40FF
:100570001A6019688022D2020A431A605A69324905
:100580000A405A61A3E7314B1A6831490A401A60A0
:1005900019688022D2010A431A605A6980218A436D
:1005A0005A6194E7224B1A682A490A401A6019686E
:1005B000802252010A431A605A6940218A435A61D3
:1005C00085E7A023DB051A6821490A401A601968EB
:1005D0008022D2010A431A605A6980218A435A61F3
:1005E00075E7A023DB051A681A490A401A601968E2
:1005F000802252010A431A605A6940218A435A6193
:1006000065E7A023DB051A680A490A401A601968E1
:100610008022D2000A431A605A6920218A435A6113
:1006200055E7C0462C120008FFFFCFFFFFFBFFFF7E
:1006300000040050FFF3FFFFFFFCFFFFFFFFFCFF84
:10064000FFFEFFFFFFFFF3FFFFFDFFFF000800506D
:10065000FF3FFFFFFFCFFFFF10B5002902D00129A8
:1006600005D010BDD218805CFFF71CFFF9E7D21847
:10067000805CFFF73FFEF4E70D2800D9FFE0800023
:10068000804B1B589F46A022D20513687E490B4021
:1006900013607E4A136801210B4313607B4B1B6977
:1006A000DB07FBD5A023DB051B699B0A0120184053
:1006B0007047774A1368C0218B431360734A1368ED
:1006C000BF390B431360714B1B69DB07FBD5704BC4
:1006D0001B69DB0801201840EAE76D4A13686D4981
:1006E0000B401360694A136801210B431360674B89
:1006F0001B69DB07FBD5664B1B695B0901201840B2
:10070000D6E7634A136864490B4013605F4A136875
:1007100001210B4313605D4B1B69DB07FBD55C4B71
:100720001B691B0901201840C2E7594A1368564942
:100730000B401360554A136801210B431360534B60
:100740001B69DB07FBD5524B1B699B0A0120184034
:10075000AEE7A022D205136850490B4013604B4A04
:10076000136801210B431360484B1B69DB07FBD562
:10077000A023DB051B691B0A0120184098E7A02273
:10078000D205136846490B401360404A13680121A3
:100790000B4313603D4B1B69DB07FBD5A023DB0537
:1007A0001B695B0A0120184082E73E4A13683E49F4
:1007B0000B401360354A136801210B431360334B20
:1007C0001B69DB07FBD5374B1B69DB090120184090
:1007D0006EE72F4A136835490B4013602B4A1368A4
:1007E00001210B431360294B1B69DB07FBD5284B09
:1007F0001B699B09012018405AE7A022D205136803
:1008000029490B401360214A136801210B431360EF
:100810001E4B1B69DB07FBD5A023DB051B69DB092E
:100820000120184044E7A022D20513681F490B405D
:100830001360164A136801210B431360134B1B69A5
:10084000DB07FBD5A023DB051B699B0901201840B2
:100850002EE7A022D20513680E490B4013600B4A05
:10086000136801210B431360084B1B69DB07FBD5A1
:10087000A023DB051B695B090120184018E7FF2056
:1008800016E7C04664120008FFFFCFFF00140140C6
:1008900000040050FFF3FFFFFFFCFFFFFFFFFCFF22
:1008A000FFFFF3FF00080050FF3FFFFFFFCFFFFFF8
:1008B00070B504AC257805AC2678072850D88000A0
:1008C000284C2058874613404A425141C9B28B42B6
:1008D00001D0002070BD0120FCE713434A42514182
:1008E000C9B28B4201D00020F4E70120F2E74B426D
:1008F0005941C9B28A4201D00020EBE70120E9E763
:1009000013408B4201D00020E4E70120E2E71340CE
:100910002B404A425141C9B28B4201D00020D9E755
:100920000120D7E713402B4033404A425141C9B21E
:100930008B4201D00020CDE70120CBE713432B43AE
:100940004A425141C9B28B4201D00020C2E7012086
:10095000C0E753408B4201D00020BBE70120B9E73C
:100960000020B7E79C120008084BDA6A07210A4307
:10097000DA625A6B19310A435A63054B1A681839FF
:100980000A431A600A22DA627047C0460010024029
:100990000014014084B0F0B5DE4657464E46454649
:1009A000E0B587B0050C040A1090119112921393D0
:1009B000EBB29B46E0B21900FFF7A6FBC3B2984624
:1009C000FF269E40F3B29A46002700230593C146B6
:1009D0005F457AD2012352461A400492B846049BDE
:1009E000012B6AD873107F271F4001231F400397F4
:1009F0004746039B012B5AD8B3103F251D400123C6
:100A00001D40012D4ED8F3101F241C4001231C4013
:100A1000B8462FE00023059A0499332004AFBC4662
:100A20006044FFF719FE29E00123059A039933205A
:100A300004AFBC466044FFF70FFE21E00223059A95
:100A40002900332004AFBC466044FFF705FE19E0DF
:100A500010AB4344187BFFF70FFE010010AB187872
:100A600001940095039B049AFFF722FF00282DD0E4
:100A70000134E4B2012C11D8F307CBD5B307D3D599
:100A80007307DBD53307E3D40323059A2100332012
:100A900004AFBC466044FFF7DFFDD9E747460135A8
:100AA000EDB2AEE7039B0133DBB20393A1E7B84697
:100AB000049B0133DBB2049391E74746059B4B440B
:100AC000DBB205930137FFB282E7012007B03CBCDF
:100AD00090469946A246AB46F0BC08BC04B0184705
:100AE000144B996B802292030A439A63DA6A0221BB
:100AF0000A43DA62104B1A6810490A401A601968F2
:100B0000A02212020A431A605A68C0210A435A609E
:100B10001A6A1202120A1A62196A882252050A43D4
:100B20001A62074B074A1A611968074A0A431A6092
:100B30007047C0460010024000040050FF0FFFFF46
:100B400000540040C50600000100020030B5144BFF
:100B50005C68144D2C405C605C6840000D042843C8
:100B6000044311482043586009E00D4B9B69DB07A3
:100B7000FBD510780A4B986201320139C9B20029BD
:100B8000F3D1074B9B699B06FBD5054BDA69202106
:100B90000A43DA615A6805490A405A6030BDC046C6
:100BA0000054004000FC00FF0020000200FC00FD9B
:100BB000022301E0013BDBB2002BFBD1704700B503
:100BC00083B00001014349B20C230B4301AA137007
:100BD00008200143517002212720FFF7B7FF03B01F
:100BE00000BD10B5040000090021FFF7E8FF0F2049
:100BF00020400021FFF7E3FF10BD10B504000009FD
:100C00000121FFF7DCFF0F2020400121FFF7D7FF74
:100C100010BD10B5FFF7F1FF10BD10B50120FFF7B3
:100C2000E0FF10BD10B5012902D0022909D010BD86
:100C3000013840B280235B421843C0B2FFF7D1FFB6
:100C4000F5E73F3040B280235B421843C0B2FFF764
:100C5000C8FFECE710B5040002E0FFF7DAFF01344B
:100C600020780028F9D1034A136801210B4313604F
:100C700010BDC0460008014010B5274A536B04213F
:100C80000B435363254BDA6803390A43DA60244A7D
:100C90009A62A0225201DA62224B802252031A6029
:100CA000214C03E0FFF784FF013CA4B2002CF9D1F2
:100CB00000210320FFF783FF9B34FF3403E0FFF79D
:100CC00077FF013CA4B2002CF9D100210320FFF7EB
:100CD00076FF0A3403E0FFF76BFF013CA4B2002C5F
:100CE000F9D100210320FFF76AFF00210220FFF75E
:100CF00066FF2820FFF775FF0C20FFF772FF062024
:100D0000FFF76FFF0120FFF76CFF0220FFF769FF7D
:100D10000648FFF79FFF10BD001002400008014089
:100D2000FF0F000000E100E0DC050000BC1200083D
:100D300070B5094C23690125AB432361FFF76DFFB3
:100D400001210120FFF76EFF0448FFF783FF2368AE
:100D5000AB43236070BDC04600080140BC120008D0
:100D600010B50A4B0020186001221A71084A83232B
:100D70001B015360074C236A1B021B0AC021090692
:100D80000B43236290600723136010BD24000020F2
:100D900010E000E000ED00E0084B1B79002B09D1CA
:100DA000064A136892689B1A8342F9D3034B1A6868
:100DB0009A607047014B00221A71F7E72400002067
:100DC000024A1368013313607047C04624000020B4
:100DD00010B5082853D013D801283AD000282ED0B7
:100DE000022841D0042800D06AE0FFF716FF012155
:100DF0000120FFF717FF38482C30FFF72BFF27E0C3
:100E0000202847D00ED940284FD0802858D1FFF74E
:100E100004FF01210120FFF705FF2F487C30FFF779
:100E200019FF15E010284BD1FFF7F7FE0121012033
:100E3000FFF7F8FE28484C30FFF70CFF08E0FFF7FB
:100E4000ECFE01210120FFF7EDFE2348FFF702FF32
:100E500010BDFFF7E2FE01210120FFF7E3FE1E486F
:100E60000C30FFF7F7FEF3E7FFF7D7FE0121012073
:100E7000FFF7D8FE18481C30FFF7ECFEE8E7FFF755
:100E8000CCFE01210120FFF7CDFE13483C30FFF7D7
:100E9000E1FEDDE7FFF7C1FE01210120FFF7C2FE01
:100EA0000D485C30FFF7D6FED2E7FFF7B6FE012112
:100EB0000120FFF7B7FE08486C30FFF7CBFEC7E70D
:100EC000FFF7ABFE01210120FFF7ACFE03480C3019
:100ED000FFF7C0FEBCE7C046F01200087013000820
:100EE00010B582B0714B1A78092A00D9D9E0930065
:100EF0006F4AD3589F46FFF7F3F9012803D06B4B95
:100F000000221A701CE0FFF788FE01210120FFF784
:100F100089FE68481C30FFF79DFE644B01221A7061
:100F20000EE0644B6A46198F1180986AD96A1A6B71
:100F30005B6BFFF72FFD012804D05C4B02221A7077
:100F400002B010BD594A012351680B435360F4E7C6
:100F5000584B6A464C21595A1180D86B196C5A6CFF
:100F60009B6CFFF717FD012803D0504B03221A702A
:100F7000E6E74E4A022351680B435360F5E74D4BB9
:100F80006A466021595A1180186D596D9A6DDB6D52
:100F9000FFF700FD012803D0444B04221A70CFE76D
:100FA000424A042351680B435360F5E7414B6A46BC
:100FB0007421595A1180586E996EDA6E1B6FFFF7C3
:100FC000E9FC012803D0394B05221A70B8E7374AEB
:100FD000082351680B435360F5E7364B6A46882176
:100FE000595A1180986FD96F80229A5884241B59BE
:100FF000FFF7D0FC012803D02C4B06221A709FE784
:101000002A4A102351680B435360F5E72A4B6A467E
:10101000998B1180D86819695A699B69FFF7BAFCE6
:10102000012803D0214B07221A7089E71F4A202389
:1010300051680B435360F5E71F4B6A46198E1180C8
:10104000186A596A9A6ADB6AFFF7A4FC012803D080
:10105000164B08221A7073E7144A402351680B4359
:101060005360F5E7144B6A464421595A1180586B76
:10107000996BDA6B1B6CFFF78DFC012803D00B4BCF
:1010800009221A705CE7094A802351680B435360B8
:10109000F5E7064C6068FFF79BFE00236360237052
:1010A0004EE7024B00225A604AE7C046300000205B
:1010B000C812000870130008F013000810B5FFF7FD
:1010C0004FFEFFF7ADF8FFF74FFCFFF709FDFFF705
:1010D000D3FD0720FFF760FEFFF7BAF8FFF700FF28
:1010E000F7E70000104B1968802252000A431A608B
:1010F000DA680E490A40DA601A680D490A401A6037
:101100009A6801218A439A601A680A490A401A605B
:10111000DA6809490A40DA6000221A61074B802226
:1011200012059A607047C046001002400C40FF88CC
:10113000F6FFF6FEFFFFFBFFFFFF02FF00ED00E002
:101140000D488546002103E00C4B5B5843500431A9
:101150000B480C4B42189A42F6D30B4A02E000238C
:1011600013600432094B9A42F9D3FFF7BBFF00F03A
:1011700011F8FFF7A3FFFEE700200020401400084D
:10118000000000200400002004000020380000209F
:10119000FEE7000070B500260C4D0D4C641BA4103A
:1011A000A64209D1002600F019F80A4D0A4C641B2A
:1011B000A410A64205D170BDB300EB589847013684
:1011C000EEE7B300EB5898470136F2E73814000811
:1011D00038140008381400083C140008F8B5C0465C
:1011E000F8BC08BC9E467047F8B5C046F8BC08BCC1
:0411F0009E46704760
:1011F4002003000800030008220300083E0300083F
:101204005C0300087A0300089A030008200300081E
:10121400BC030008DE030008FC0300081A040008ED
:101224003A0400085A040008CE040008B004000878
:10123400D0040008EC0400080A050008280500088A
:1012440046050008CE040008660500088605000867
:10125400A4050008C2050008E2050008020600080B
:101264007E08000886060008B2060008DA060008B0
:10127400020700082A070008520700087E08000831
:101284007E070008AA070008D2070008FA0700082A
:101294002608000852080008C6080008DA080008F2
:1012A400EE080008000900080E09000824090008D7
:1012B4003C0900085209000852656164792E2E2EFB
:1012C40000000000F60E0008220F0008500F00086E
:1012D4007E0F0008AC0F0008DA0F00080C1000089D
:1012E40038100008641000089210000854657374E4
:1012F400204661696C000000373448433030205088
:101304006173736564000000373448433032205001
:1013140061737365640000003734484330342050EF
:1013240061737365640000003734484330382050DB
:1013340061737365640000003734484331302050D2
:1013440061737365640000003734484332302050C1
:1013540061737365640000003734484332372050AA
:101364006173736564000000373448433836205095
:1013740061737365640000004D756C74697061730A
:1013840073204572726F720054657374696E672EB0
:101394002E2E000000080401020405090A0C0D00A9
:1013A4000306080B000000000108040203050608F8
:1013B400090B0C0001040A0D0000000002060601DE
:1013C4000305090B0D000000020406080A0C0000C6
:1013D40003080401020405090A0C0D000306080BA6
:1013E4000000000004090301020D030405090A0BAF
:1013F4000C060800000000000508020102040509AB
:101404000A0C0D0006080000000000000609030194
:10141400020D030405090A0B0C0608000000000075
:1014240007080401020405090A0C0D000306080B51
:0414340000000000B4
:04143800E9000008BF
:04143C00C1000008E3
:0414400001000000A7
:04000005080011419D
:00000001FF
