:020000040800F2
:1000000000200020ED0D0008870D0008890D000874
:1000100000000000000000000000000000000000E0
:100020000000000000000000000000008B0D000830
:1000300000000000000000008D0D0008790B000892
:100040003D0E00083D0E00083D0E00083D0E000864
:100050003D0E00083D0E00083D0E00083D0E000854
:100060003D0E00083D0E00083D0E00083D0E000844
:100070003D0E00083D0E0008000000003D0E000887
:10008000000000003D0E000800000000000000001D
:10009000E50A0008000000003D0E00083D0E0008C3
:1000A0003D0E00083D0E00083D0E00083D0E000804
:1000B0003D0E00083D0E00083D0E00083D0E0008F4
:1000C00010B5064C2378002B07D1054B002B02D02E
:1000D000044800E000BF0123237010BD040000208D
:1000E00000000000880E0008044B10B5002B03D060
:1000F0000349044800E000BF10BDC04600000000F6
:1001000008000020880E0008002243088B4274D3A8
:1001100003098B425FD3030A8B4244D3030B8B4208
:1001200028D3030C8B420DD3FF22090212BA030C11
:100130008B4202D31212090265D0030B8B4219D3F2
:1001400000E0090AC30B8B4201D3CB03C01A524112
:10015000830B8B4201D38B03C01A5241430B8B425A
:1001600001D34B03C01A5241030B8B4201D30B0343
:10017000C01A5241C30A8B4201D3CB02C01A52416A
:10018000830A8B4201D38B02C01A5241430A8B422D
:1001900001D34B02C01A5241030A8B4201D30B0216
:1001A000C01A5241CDD2C3098B4201D3CB01C01A30
:1001B000524183098B4201D38B01C01A524143093A
:1001C0008B4201D34B01C01A524103098B4201D328
:1001D0000B01C01A5241C3088B4201D3CB00C01A95
:1001E000524183088B4201D38B00C01A524143080D
:1001F0008B4201D34B00C01A5241411A00D2014632
:10020000524110467047FFE701B5002000F006F8A4
:1002100002BDC0460029F7D076E770477047C04658
:10022000084AD36A04210B43D362074B1A68013989
:100230008A431A60DA6801390A43DA60034B002204
:100240001A70704700100240000800502000002083
:10025000204B1A6901231A401F4B1B78002B34D006
:100260001D4B002119701D4B5B78012B13D0002B07
:1002700007D0022B19D0032B1DD0184B00225A7027
:1002800026E0002A03D0154B01225A7020E0134BC0
:1002900000225A701CE0002A03D0104B02225A7030
:1002A00016E00E4B00225A7012E00C4B01221A701D
:1002B00002325A700CE0002A03D0084B03225A7015
:1002C00006E0064B00225A7002E00133024A137026
:1002D0007047C046000800500000002020000020A9
:1002E000034B1878012800D0704700221A70FBE7F2
:1002F000200000200D280ED88000424B1B589F463E
:10030000A023DB051A6840490A401A605969802217
:10031000D2000A435A6170473C4B1A6880218A43D5
:100320001A605A6978390A435A61F4E7374B1A68F8
:1003300037490A401A605A6920210A435A61EAE79C
:10034000324B1A6833490A401A605A6910210A432D
:100350005A61E0E72D4B1A682B490A401A60596927
:100360008022D2000A435A61D5E7A023DB051A6830
:1003700029490A401A605969802252000A435A6189
:10038000C9E7A023DB051A6824490A401A605969A5
:10039000802292000A435A61BDE7214B1A68214925
:1003A0000A401A605A6980210A435A61B3E7174B21
:1003B0001A681D490A401A605A6940210A435A6165
:1003C000A9E7A023DB051A6816490A401A605A6992
:1003D00080210A435A619EE7A023DB051A6812496F
:1003E0000A401A605A6940210A435A6193E7A023E0
:1003F000DB051A6806490A401A605A6920210A4337
:100400005A6188E7A00E0008FFFFDFFF00040050DC
:10041000FFF7FFFFFFFDFFFFFFFFFDFFFFFFF7FF00
:1004200000080050FF7FFFFFFFDFFFFF0D280DD802
:100430008000404B1B589F46A023DB051A683E49AD
:100440000A401A605A693D490A405A6170473C4B5C
:100450001A6880218A431A605A6978398A435A6136
:10046000F4E7374B1A6837490A401A605A69202165
:100470008A435A61EAE7324B1A6833490A401A60E4
:100480005A6910218A435A61E0E72D4B1A682A49BC
:100490000A401A605A6929490A405A61D6E7A023DE
:1004A000DB051A6829490A401A605A6928490A4036
:1004B0005A61CBE7A023DB051A6826490A401A6077
:1004C0005A6921490A405A61C0E7234B1A682349F7
:1004D0000A401A605A6980218A435A61B6E7184B6C
:1004E0001A681F490A401A605A6940218A435A61B2
:1004F000ACE7A023DB051A6818490A401A605A695C
:1005000080218A435A61A1E7A023DB051A681449B8
:100510000A401A605A6940218A435A6196E7A0232B
:10052000DB051A6807490A401A605A6920218A4384
:100530005A618BE7D80E0008FFFFDFFFFFFBFFFFCC
:1005400000040050FFF7FFFFFFFDFFFFFFFFFDFF6F
:10055000FFFEFFFFFFFFF7FF00080050FF7FFFFFD8
:10056000FFDFFFFF10B5002902D0012905D010BD23
:10057000D218805CFFF75AFFF9E7D218805CFFF7CA
:10058000B9FEF4E70D2800D9FFE08000804B1B582E
:100590009F46A022D20513687E490B4013607E4A15
:1005A000136801210B4313607B4B1B69DB07FBD5F1
:1005B000A023DB051B699B0A012018407047774A7E
:1005C0001368C0218B431360734A1368BF390B4310
:1005D0001360714B1B69DB07FBD5704B1B69DB0894
:1005E00001201840EAE76D4A13686D490B4013601B
:1005F000694A136801210B431360674B1B69DB07D2
:10060000FBD5664B1B695B0901201840D6E7634A9E
:10061000136864490B4013605F4A136801210B4360
:1006200013605D4B1B69DB07FBD55C4B1B691B092A
:1006300001201840C2E7594A136856490B4013601D
:10064000554A136801210B431360534B1B69DB07A9
:10065000FBD5524B1B699B0A01201840AEE7A02234
:10066000D205136850490B4013604B4A13680121AF
:100670000B431360484B1B69DB07FBD5A023DB054D
:100680001B691B0A0120184098E7A022D2051368B5
:1006900046490B401360404A136801210B43136025
:1006A0003D4B1B69DB07FBD5A023DB051B695B0A00
:1006B0000120184082E73E4A13683E490B40136010
:1006C000354A136801210B431360334B1B69DB0769
:1006D000FBD5374B1B69DB09012018406EE72F4A19
:1006E000136835490B4013602B4A136801210B43F3
:1006F0001360294B1B69DB07FBD5284B1B699B0942
:10070000012018405AE7A022D205136829490B405E
:100710001360214A136801210B4313601E4B1B69B0
:10072000DB07FBD5A023DB051B69DB090120184093
:1007300044E7A022D20513681F490B401360164AF4
:10074000136801210B431360134B1B69DB07FBD5B7
:10075000A023DB051B699B09012018402EE7A0227E
:10076000D20513680E490B4013600B4A1368012130
:100770000B431360084B1B69DB07FBD5A023DB058C
:100780001B695B090120184018E7FF2016E7C046E7
:10079000100F0008FFFFCFFF0014014000040050BD
:1007A000FFF3FFFFFFFCFFFFFFFFFCFFFFFFF3FF77
:1007B00000080050FF3FFFFFFFCFFFFF70B504AC04
:1007C000257805AC2678072846D88000234C205889
:1007D00087461340C9438B4201D0002070BD0120E1
:1007E000FCE71343C9438B4201D00020F6E7012008
:1007F000F4E74B425941C9B28A4201D00020EDE7EB
:100800000120EBE713408B4201D00020E6E70120F6
:10081000E4E713402B40C9438B4201D00020DDE7C1
:100820000120DBE713402B403340C9438B4201D00A
:100830000020D3E70120D1E713432B43C9438B4268
:1008400001D00020CAE70120C8E753408B4201D005
:100850000020C3E70120C1E70020BFE7480F0008E0
:10086000084BDA6A07210A43DA625A6B19310A43E4
:100870005A63054B1A6818390A431A600A22DA6269
:100880007047C046001002400014014084B0F0B52B
:10089000DE4657464E464546E0B587B0050C040A8D
:1008A0001090119112921393EBB29B46E0B2190093
:1008B000FFF72AFCC3B29846FF269E40F3B29A4641
:1008C000002700230593C1465F457AD20123524693
:1008D0001A400492B846049B012B6AD873107F27F4
:1008E0001F4001231F4003974746039B012B5AD803
:1008F000B3103F251D4001231D40012D4ED8F3109C
:100900001F241C4001231C40B8462FE00023059AF9
:100910000499332004AFBC466044FFF723FE29E06E
:100920000123059A0399332004AFBC466044FFF7C6
:1009300019FE21E00223059A2900332004AFBC46AA
:100940006044FFF70FFE19E010AB4344187BFFF73C
:1009500019FE010010AB187801940095039B049ACE
:10096000FFF72CFF00282DD00134E4B2012C11D860
:10097000F307CBD5B307D3D57307DBD53307E3D460
:100980000323059A2100332004AFBC466044FFF7DF
:10099000E9FDD9E747460135EDB2AEE7039B0133E8
:1009A000DBB20393A1E7B846049B0133DBB20493A7
:1009B00091E74746059B4B44DBB205930137FFB2F5
:1009C00082E7012007B03CBC90469946A246AB4660
:1009D000F0BC08BC04B01847114BDA6A06210A4380
:1009E000DA625A6B02390A435A630E4A13681C31A1
:1009F0008B4313600C4A13680C490B4013600C4B7B
:100A0000DA6801210A43DA600A4A9A62A022520196
:100A1000DA62094B802252031A60084B1970704742
:100A2000001002400004005000080050FFFDFFFFCE
:100A300000080140FF0F000000E100E0220000205C
:100A4000074A536910210B435361064A53690C3915
:100A50008B435361044A136803390B431360704797
:100A6000000800500004005000080140074A536984
:100A700004210B435361064A53690C318B43536184
:100A8000044A13680F390B43136070470004005089
:100A90000008005000080140074A536910210B4329
:100AA0005361064A53690C390B435361044A136876
:100AB00003390B43136070470008005000040050D6
:100AC00000080140054A536904218B435361044ADD
:100AD00053690C318B4353617047C046000400508A
:100AE0000008005010B50A4A136901218B431361B5
:100AF000084B1B78012B07D0054A136801218B4353
:100B00001360FFF7DFFF10BD024B00221A70FAE7F7
:100B1000000801402200002010B50A4B0020186098
:100B200001221A71084A83231B015360074C236A70
:100B30001B021B0AC02109060B4323629060072396
:100B4000136010BD2400002010E000E000ED00E084
:100B5000084B1B79002B09D1064A136892689B1A2F
:100B60008342F9D3034B1A689A607047014B002205
:100B70001A71F7E724000020024A1368013313605A
:100B80007047C0462400002010B582B0714B1A781F
:100B9000092A00D9DAE093006F4AD3589F46FFF73D
:100BA0009FFB012803D06B4B00221A7012E0694BA7
:100BB00001221A700EE0694B6A46198A1180186882
:100BC00059689A68DB68FFF761FE012804D0614B21
:100BD00002221A7002B010BD5E4A012351680B4315
:100BE0005360F4E75D4B6A46998C118058699969A6
:100BF000DA691B6AFFF74AFE012803D0554B03222E
:100C00001A70E7E7534A022351680B435360F5E734
:100C1000524B6A46198F1180986AD96A1A6B5B6BBE
:100C2000FFF734FE012803D04A4B04221A70D1E7A3
:100C3000484A042351680B435360F5E7474B6A4623
:100C40004C21595A1180D86B196C5A6C9B6CFFF768
:100C50001DFE012803D03F4B05221A70BAE73D4A1A
:100C6000082351680B435360F5E73C4B6A4660210B
:100C7000595A1180186D596D9A6DDB6DFFF706FE9C
:100C8000012803D0334B06221A70A3E7314A102300
:100C900051680B435360F5E7304B6A467421595A4B
:100CA0001180586E996EDA6E1B6FFFF7EFFD012809
:100CB00003D0284B07221A708CE7264A202351685C
:100CC0000B435360F5E7254B6A468821595A11803A
:100CD000986FD96F80229A5884241B59FFF7D6FD4C
:100CE000012803D01B4B08221A7073E7194A4023CE
:100CF00051680B435360F5E7194B6A46998B118095
:100D0000D86819695A699B69FFF7C0FD012803D0AB
:100D1000104B09221A705DE70E4A802351680B437D
:100D20005360F5E70B4B5B68002B09D05A1E1A4243
:100D300009D1FFF785FE074B00225A601A7049E778
:100D4000FFF794FEF7E7FFF7A7FEF4E7014B002259
:100D50005A603FE730000020680F0008900F00083D
:100D60001010000810B5FFF737FEFFF7D5FEFFF7AC
:100D700057FAFFF775FD0720FFF7EAFEFFF768FA5D
:100D8000FFF702FFF7E77047FEE770477047000084
:100D9000104B1968802252000A431A60DA680E4923
:100DA0000A40DA601A680D490A401A609A680121FF
:100DB0008A439A601A680A490A401A60DA6809493F
:100DC0000A40DA6000221A61074B802212059A60FD
:100DD0007047C046001002400C40FF88F6FFF6FE48
:100DE000FFFFFBFFFFFF02FF00ED00E00D4885461F
:100DF000002103E00C4B5B58435004310B480C4B73
:100E000042189A42F6D30B4A02E0002313600432E0
:100E1000094B9A42F9D3FFF7BBFF00F011F8FFF737
:100E2000A1FFFEE70020002038100008000000208D
:100E3000040000200400002038000020FEE700002D
:100E400070B500260C4D0D4C641BA410A64209D1B0
:100E5000002600F019F80A4D0A4C641BA410A642A3
:100E600005D170BDB300EB5898470136EEE7B300EB
:100E7000EB5898470136F2E73010000830100008B0
:100E80003010000834100008F8B5C046F8BC08BCA3
:100E90009E467047F8B5C046F8BC08BC9E467047F1
:100EA0001603000800030008180300082C030008BC
:100EB00040030008540300086A03000816030008F2
:100EC000820300089A030008AE030008C20300086A
:100ED000D8030008EE0300084C040008380400089A
:100EE0004E04000862040008760400088A04000822
:100EF0009E0400084C040008B4040008CA0400085A
:100F0000DE040008F2040008080500081E050008B9
:100F10008A07000892050008BE050008E6050008DB
:100F20000E060008360600085E0600088A0700085C
:100F30008A060008B6060008DE0600080607000854
:100F4000320700085E070008D2070008E207000821
:100F5000F207000804080008120800082408000826
:100F6000380800084A0800089E0B0008B60B000865
:100F7000E40B0008100C00083C0C00086A0C000888
:100F8000980C0008C60C0008F80C0008240D000896
:100F900000080401020405090A0C0D000306080BF1
:100FA000000000000108040203050608090B0C00FC
:100FB00001040A0D00000000020606010305090BEA
:100FC0000D000000020406080A0C000003080401DA
:100FD000020405090A0C0D000306080B00000000BE
:100FE00004090301020D030405090A0B0C0608009D
:100FF0000000000005080201020405090A0C0D00AA
:10100000060800000000000006090301020D0304A9
:1010100005090A0B0C06080000000000070804017F
:10102000020405090A0C0D000306080B000000006D
:04103000E9000008CB
:04103400C1000008EF
:0410380001000000B3
:0400000508000DEDF5
:00000001FF
